:100000000C9434000C9449000C9449000C94490061
:100010000C9449000C9449000C9449000C9449003C
:100020000C9449000C9449000C9449000C9449002C
:100030000C9449000C9449000C9449000C9449001C
:100040000C9449000C9449000C9449000C9449000C
:100050000C9449000C9449000C9449000C944900FC
:100060000C9449000C94490011241FBECFEFD8E036
:10007000DEBFCDBF12E0A0E0B1E0ECECF1E002C0E9
:1000800005900D92AE33B107D9F70E947A000C9417
:10009000E4000C9400009093C5008093C40088E1B4
:1000A0008093C10086E08093C2000895FC0107C0E0
:1000B0009091C00095FFFCCF31968093C60080815F
:1000C0008111F6CF08959091C00095FFFCCF8093E9
:1000D000C60008958091C0008823E4F78091C6008F
:1000E0000895982F9F7395B99BB19F73807C892B3E
:1000F0008BB9089587E690E00E944B008FE384B9A6
:100100008AB1806C8AB980E091E00E9456008EE14D
:1001100091E00E9456008FE391E00E94560083E731
:1001200091E00E945600C0E0D0E0D11131C08FE4D0
:10013000C89F812D11248695869586959C2F2AE14E
:10014000829F90191124892F8F5B0E9463008C2F4E
:100150000E947100CF5F2FEF89E698E12150804027
:100160009040E1F700C000008091C0008823ECF6C9
:100170000E946A008BE991E00E94560085EB91E0B5
:100180000E9456008AED91E00E945600D1E0CDCF4A
:100190008091C00088234CF60E946A00182F0E94AC
:1001A0007100812F0E946300143519F0143709F093
:1001B000BCCF85E092E00E94560081E292E00E946E
:0C01C0005600C0E0D0E0B1CFF894FFCFB3
:1001CC000D0A53697374656D612055415254206951
:1001DC006E696369616C697A61646F0D0A004D6FB9
:1001EC00646F205472616E736D6973696F6E3A201F
:1001FC00456E7669616E646F20412D5A0D0A00457B
:10020C006E766965206375616C71756965722063C2
:10021C006172616374657220706172612063616DDB
:10022C0062696172206120526563657063696F6EEB
:10023C000D0A00456E76696520275427207061727F
:10024C006120766F6C7665722061205472616E73DA
:10025C006D6973696F6E0D0A0D0A000D0A4D6F649E
:10026C006F20526563657063696F6E20616374699A
:10027C00766F0D0A004C454473206D75657374726E
:10028C00616E20636172616374657265732072655F
:10029C0063696269646F730D0A0050726573696FEC
:1002AC006E6520275427207061726120766F6C7602
:1002BC0065722061205472616E736D6973696F6E23
:1002CC000D0A0D0A000D0A4D6F646F205472616E99
:1002DC00736D6973696F6E2061637469766F0D0A53
:1002EC0000456E7669616E646F20412D5A20636102
:0E02FC006461203530306D730D0A0D0A00006C
:00000001FF
