:100000000C9434000C9449000C9449000C94490061
:100010000C9449000C9449000C9449000C9449003C
:100020000C9449000C9449000C9449000C9449002C
:100030000C9449000C9449000C9449000C9449001C
:100040000C9449000C9449000C9449000C9449000C
:100050000C9449000C9449000C9449000C944900FC
:100060000C9449000C94490011241FBECFEFD8E036
:10007000DEBFCDBF12E0A0E0B1E0EEE8F2E002C0EA
:1000800005900D92AC30B107D9F70E94BF000C94D7
:1000900045010C9400009093C5008093C40088E152
:1000A0008093C10086E08093C2000895FC0107C0E0
:1000B0009091C00095FFFCCF31968093C60080815F
:1000C0008111F6CF08959091C00095FFFCCF8093E9
:1000D000C60008958091C0008823E4F78091C6008F
:1000E0000895982F9F7395B99BB19F73807C892B3E
:1000F0008BB9089580E480937C0087EC80937A002C
:1001000080917A0086FDFCCF8091780090917900F3
:10011000089580E091E00E94560089E191E00E94FC
:10012000560086E391E00E94560081E591E00E942E
:1001300056000895CF93DF93EB01FB0101C0F90155
:100140009F012F5F3F4F642F70E00E943101DC015F
:10015000A359BE4F8C918083862F972F009779F7F4
:10016000118207C0DE018D91908198838083319741
:10017000ED01CE17DF07B0F3DF91CF910895CF9354
:10018000DF93CDB7DEB72A970FB6F894DEBF0FBE68
:10019000CDBF87E690E00E944B008FE384B98AB11F
:1001A000806C8AB987E880937A008EE791E00E949C
:1001B00056000E9489000E946A00182F0E94630066
:1001C000113319F01233C9F03EC00E947A00182F83
:1001D000092F84EA91E00E9456004AE0BE016F5F59
:1001E0007F4F812F902F0E949A00CE0101960E948E
:1001F0005600812F0E9471002AC08CEB91E00E9472
:1002000056000E946A00182F87ED91E00E94560068
:10021000812F0E9463008CEE91E00E9456004AE01C
:10022000BE016F5F7F4F812F90E00E949A00CE0148
:1002300001960E94560084E391E00E945600812FAF
:100240000E94710004C088EF91E00E9456002FEFD9
:1002500081EE94E0215080409040E1F700C0000022
:10026000A8CFAA1BBB1B51E107C0AA1FBB1FA61723
:10027000B70710F0A61BB70B881F991F5A95A9F74F
:0E02800080959095BC01CD010895F894FFCFB4
:10028E000D0A3D3D3D204D454E55205052494E43A1
:10029E004950414C203D3D3D000D0A312E204C650C
:1002AE00657220506F74656E63696F6D6574726FE1
:1002BE002028413029000D0A322E20456E766961C4
:1002CE0072204361726163746572204153434949E0
:1002DE00000D0A53656C656363696F6E65206F7000
:1002EE006369F36E2028312D32293A2000303132E5
:1002FE0033343536373839414243444546000D0ACA
:10030E0053697374656D61205541525420636F6E4D
:10031E00206D656E7520696E7465726163746976A1
:10032E006F0D0A000D0A56616C6F7220706F746546
:10033E006E63696F6D6574726F3A20000D0A496EB7
:10034E0067726573652063617261637465722041C3
:10035E00534349493A20000D0A4361726163746543
:10036E007220656E766961646F3A200020284465BC
:10037E0063696D616C3A20000D0A4F7063696F6E90
:0C038E00206E6F2076616C6964612100B4
:00000001FF
