:100000000C9434000C9451000C9451000C94510049
:100010000C9451000C9451000C9451000C9451001C
:100020000C9451000C9451000C9451000C9451000C
:100030000C9451000C9451000C9451000C945100FC
:100040000C9451000C9451000C947B000C945100C2
:100050000C9451000C9451000C9451000C945100DC
:100060000C9451000C94510011241FBECFEFD8E026
:10007000DEBFCDBF11E0A0E0B1E0EAEDF1E002C0EB
:1000800005900D92AE37B107D9F721E0AEE7B1E0A8
:1000900001C01D92A038B207E1F70E94A4000C94A1
:1000A000EB000C9400009093C5008093C40088E995
:1000B0008093C10086E08093C20008959091C000B3
:1000C00095FFFCCF8093C60008950F931F93CF93A5
:1000D000DF938C01C0E0D0E003C00E945E00219657
:1000E000F801EC0FFD1F80818111F7CFDF91CF91D7
:1000F0001F910F9108951F920F920FB60F92112426
:100100002F938F939F938091C60080937F0181E00E
:1001100080937E0180917F018F7385B92BB190917F
:100120007F01892F90E0880F991F880F991F922FC8
:100130009F73807C892B8BB99F918F912F910F900A
:100140000FBE0F901F90189587E690E00E94530015
:100150008FE384B98AB1806C8AB9789480E091E0A9
:100160000E94650085E191E00E94650088E391E0CE
:100170000E946500D0E08FE4D89F812D11248695E0
:1001800086958695CD2F2AE1829FC0191124CF5BD9
:100190008C2F0E945E0085E691E00E9465008C2F06
:1001A0000E945E0080917E01882351F081E791E0FA
:1001B0000E94650080917F010E945E0010927E0186
:1001C0008FEF93ED20E3815090402040E1F700C095
:0A01D0000000DF5FD0CFF894FFCFEE
:1001DA0053697374656D612055415254206C69737B
:1001EA00746F0D0A00506172746520313A20456EB1
:1001FA0076696F206175746F6D617469636F2061D0
:10020A00637469766F0D0A00506172746520323A20
:10021A0020526563657063696F6E20706F72206922
:10022A006E74657272757063696F6E20616374694A
:10023A0076610D0A000D0A456E766961646F3A208F
:0E024A00000D0A526563696269646F3A200014
:00000001FF
