:100000000C9434000C943E000C943E000C943E0082
:100010000C943E000C943E000C943E000C943E0068
:100020000C943E000C943E000C943E000C943E0058
:100030000C943E000C943E000C943E000C943E0048
:100040000C943E000C943E000C943E000C943E0038
:100050000C943E000C943E000C943E000C943E0028
:100060000C943E000C943E0011241FBECFEFD8E04C
:10007000DEBFCDBF0E9462000C944D010C940000C5
:100080009093C5008093C40088E18093C10086E00E
:100090008093C20008959091C00095FFFCCF80939B
:1000A000C60008958091C0008823E4F78091C600BF
:1000B0000895982F9F7395B99BB19F73807C892B6E
:1000C0008BB9089587E690E00E9440008FE384B9E1
:1000D0008AB1806C8AB9C0E0D0E0D11176C08FE4DB
:1000E000C89F812D11248695869586959C2F2AE19F
:1000F000829F90191124892F8F5B0E944B008C2FB7
:100100000E945900CF5F2FEF89E698E1215080408F
:100110009040E1F700C000008091C0008823ECF619
:100120000E9452008AE00E944B0083E50E944B002F
:1001300087E70E944B0089E60E944B0084E70E94FB
:100140004B0083E60E944B0088E60E944B0089E644
:100150000E944B008EE60E944B0087E60E944B00F7
:1001600080E20E944B0084E70E944B008FE60E94D1
:100170004B0080E20E944B0082E50E944B0085E626
:100180000E944B0083E60E944B0085E60E944B00D4
:1001900089E60E944B0086E70E944B0085E60E949C
:1001A0004B0080E20E944B008DE40E944B008FE6E2
:1001B0000E944B0084E60E944B0085E60E944B00A3
:1001C0008AE00E944B00D1E088CF8091C000882354
:1001D0000CF083CF0E945200182F0E945900812FEB
:1001E0000E944B00143519F0143709F076CF8AE0DD
:1001F0000E944B0083E50E944B0087E70E944B0062
:1002000089E60E944B0084E70E944B0083E60E942F
:100210004B0088E60E944B0089E60E944B008EE668
:100220000E944B0087E60E944B0080E20E944B0038
:1002300084E70E944B008FE60E944B0080E20E9400
:100240004B0084E50E944B0082E70E944B0081E650
:100250000E944B008EE60E944B0083E70E944B00F9
:100260008DE60E944B0089E60E944B0084E70E94C5
:100270004B0080E20E944B008DE40E944B008FE611
:100280000E944B0084E60E944B0085E60E944B00D2
:0E0290008AE00E944B00D0E020CFF894FFCF10
:00000001FF
